{
  "address": "0xbeb4eF1fcEa618C6ca38e3828B00f8D481EC2CC2",
  "abi": [
    {
      "inputs": [
        {
          "internalType": "address",
          "name": "_owner",
          "type": "address"
        }
      ],
      "stateMutability": "nonpayable",
      "type": "constructor"
    },
    {
      "inputs": [],
      "name": "ECDSAInvalidSignature",
      "type": "error"
    },
    {
      "inputs": [
        {
          "internalType": "uint256",
          "name": "length",
          "type": "uint256"
        }
      ],
      "name": "ECDSAInvalidSignatureLength",
      "type": "error"
    },
    {
      "inputs": [
        {
          "internalType": "bytes32",
          "name": "s",
          "type": "bytes32"
        }
      ],
      "name": "ECDSAInvalidSignatureS",
      "type": "error"
    },
    {
      "inputs": [],
      "name": "InvalidShortString",
      "type": "error"
    },
    {
      "inputs": [],
      "name": "SignerNotMessageSender",
      "type": "error"
    },
    {
      "inputs": [],
      "name": "SignerNotOwner",
      "type": "error"
    },
    {
      "inputs": [
        {
          "internalType": "string",
          "name": "str",
          "type": "string"
        }
      ],
      "name": "StringTooLong",
      "type": "error"
    },
    {
      "anonymous": false,
      "inputs": [],
      "name": "EIP712DomainChanged",
      "type": "event"
    },
    {
      "anonymous": false,
      "inputs": [
        {
          "indexed": true,
          "internalType": "address",
          "name": "user",
          "type": "address"
        },
        {
          "indexed": true,
          "internalType": "address",
          "name": "secondarySigner",
          "type": "address"
        }
      ],
      "name": "LoginApproved",
      "type": "event"
    },
    {
      "anonymous": false,
      "inputs": [
        {
          "indexed": true,
          "internalType": "address",
          "name": "user",
          "type": "address"
        }
      ],
      "name": "LoginRequested",
      "type": "event"
    },
    {
      "anonymous": false,
      "inputs": [
        {
          "indexed": true,
          "internalType": "address",
          "name": "user",
          "type": "address"
        },
        {
          "indexed": true,
          "internalType": "address",
          "name": "secondarySigner",
          "type": "address"
        }
      ],
      "name": "Registered",
      "type": "event"
    },
    {
      "inputs": [],
      "name": "PASSWORD_VALIDITY_DURATION",
      "outputs": [
        {
          "internalType": "uint256",
          "name": "",
          "type": "uint256"
        }
      ],
      "stateMutability": "view",
      "type": "function"
    },
    {
      "inputs": [],
      "name": "TIME_INTERVAL",
      "outputs": [
        {
          "internalType": "uint256",
          "name": "",
          "type": "uint256"
        }
      ],
      "stateMutability": "view",
      "type": "function"
    },
    {
      "inputs": [
        {
          "components": [
            {
              "internalType": "bytes32",
              "name": "publicKey",
              "type": "bytes32"
            },
            {
              "internalType": "bytes",
              "name": "signature",
              "type": "bytes"
            }
          ],
          "internalType": "struct Permission",
          "name": "perm",
          "type": "tuple"
        },
        {
          "internalType": "address",
          "name": "service",
          "type": "address"
        }
      ],
      "name": "addServiceToWhitelist",
      "outputs": [],
      "stateMutability": "nonpayable",
      "type": "function"
    },
    {
      "inputs": [
        {
          "internalType": "address",
          "name": "_user",
          "type": "address"
        },
        {
          "components": [
            {
              "internalType": "bytes",
              "name": "data",
              "type": "bytes"
            }
          ],
          "internalType": "struct inEuint256",
          "name": "_tempPassword",
          "type": "tuple"
        }
      ],
      "name": "approveLogin",
      "outputs": [],
      "stateMutability": "nonpayable",
      "type": "function"
    },
    {
      "inputs": [
        {
          "internalType": "address",
          "name": "",
          "type": "address"
        }
      ],
      "name": "authData",
      "outputs": [
        {
          "internalType": "uint256",
          "name": "lastRequestTime",
          "type": "uint256"
        },
        {
          "internalType": "address",
          "name": "secondarySigner",
          "type": "address"
        },
        {
          "internalType": "bool",
          "name": "isApproved",
          "type": "bool"
        },
        {
          "internalType": "uint256",
          "name": "lastApprovalTime",
          "type": "uint256"
        },
        {
          "internalType": "euint256",
          "name": "encryptedPassword",
          "type": "uint256"
        },
        {
          "internalType": "bytes32",
          "name": "userPublicKey",
          "type": "bytes32"
        },
        {
          "internalType": "uint256",
          "name": "validUntil",
          "type": "uint256"
        },
        {
          "internalType": "uint8",
          "name": "passwordAttempts",
          "type": "uint8"
        },
        {
          "internalType": "bool",
          "name": "passwordUsed",
          "type": "bool"
        }
      ],
      "stateMutability": "view",
      "type": "function"
    },
    {
      "inputs": [],
      "name": "eip712Domain",
      "outputs": [
        {
          "internalType": "bytes1",
          "name": "fields",
          "type": "bytes1"
        },
        {
          "internalType": "string",
          "name": "name",
          "type": "string"
        },
        {
          "internalType": "string",
          "name": "version",
          "type": "string"
        },
        {
          "internalType": "uint256",
          "name": "chainId",
          "type": "uint256"
        },
        {
          "internalType": "address",
          "name": "verifyingContract",
          "type": "address"
        },
        {
          "internalType": "bytes32",
          "name": "salt",
          "type": "bytes32"
        },
        {
          "internalType": "uint256[]",
          "name": "extensions",
          "type": "uint256[]"
        }
      ],
      "stateMutability": "view",
      "type": "function"
    },
    {
      "inputs": [],
      "name": "getEncryptedPassword",
      "outputs": [
        {
          "internalType": "string",
          "name": "encryptedPassword",
          "type": "string"
        }
      ],
      "stateMutability": "view",
      "type": "function"
    },
    {
      "inputs": [
        {
          "components": [
            {
              "internalType": "bytes32",
              "name": "publicKey",
              "type": "bytes32"
            },
            {
              "internalType": "bytes",
              "name": "signature",
              "type": "bytes"
            }
          ],
          "internalType": "struct Permission",
          "name": "perm",
          "type": "tuple"
        },
        {
          "internalType": "address",
          "name": "_secondarySigner",
          "type": "address"
        }
      ],
      "name": "register",
      "outputs": [],
      "stateMutability": "nonpayable",
      "type": "function"
    },
    {
      "inputs": [
        {
          "components": [
            {
              "internalType": "bytes32",
              "name": "publicKey",
              "type": "bytes32"
            },
            {
              "internalType": "bytes",
              "name": "signature",
              "type": "bytes"
            }
          ],
          "internalType": "struct Permission",
          "name": "perm",
          "type": "tuple"
        },
        {
          "internalType": "address",
          "name": "service",
          "type": "address"
        }
      ],
      "name": "removeServiceFromWhitelist",
      "outputs": [],
      "stateMutability": "nonpayable",
      "type": "function"
    },
    {
      "inputs": [],
      "name": "requestLogin",
      "outputs": [],
      "stateMutability": "nonpayable",
      "type": "function"
    },
    {
      "inputs": [
        {
          "components": [
            {
              "internalType": "bytes32",
              "name": "publicKey",
              "type": "bytes32"
            },
            {
              "internalType": "bytes",
              "name": "signature",
              "type": "bytes"
            }
          ],
          "internalType": "struct Permission",
          "name": "perm",
          "type": "tuple"
        },
        {
          "internalType": "address",
          "name": "_service",
          "type": "address"
        },
        {
          "internalType": "address",
          "name": "_user",
          "type": "address"
        },
        {
          "components": [
            {
              "internalType": "bytes",
              "name": "data",
              "type": "bytes"
            }
          ],
          "internalType": "struct inEuint256",
          "name": "_encryptedTempPassword",
          "type": "tuple"
        }
      ],
      "name": "verifyTempPassword",
      "outputs": [
        {
          "internalType": "bool",
          "name": "",
          "type": "bool"
        }
      ],
      "stateMutability": "nonpayable",
      "type": "function"
    },
    {
      "inputs": [
        {
          "internalType": "address",
          "name": "",
          "type": "address"
        }
      ],
      "name": "whitelistedServices",
      "outputs": [
        {
          "internalType": "bool",
          "name": "",
          "type": "bool"
        }
      ],
      "stateMutability": "view",
      "type": "function"
    }
  ],
  "transactionHash": "0x8a93f3c86530c4a18de6e49c8da779c3218855f9a9592a2b607097b5d189b1ff",
  "args": [
    "0xd7702EB6Ca4C101C918f7d4eaBeDc36e36260482"
  ],
  "numDeployments": 1,
  "solcInputHash": "d9eda569f7733500e023fd346cb00198",
  "bytecode": "0x61016060405234801561001157600080fd5b5060405161394b38038061394b83398181016040528101906100339190610310565b6040518060400160405280601181526020017f4668656e6978205065726d697373696f6e0000000000000000000000000000008152506040518060400160405280600381526020017f312e3000000000000000000000000000000000000000000000000000000000008152506100b360008361019060201b90919060201c565b61012081815250506100cf60018261019060201b90919060201c565b6101408181525050818051906020012060e08181525050808051906020012061010081815250504660a0818152505061010c6101e060201b60201c565b608081815250503073ffffffffffffffffffffffffffffffffffffffff1660c08173ffffffffffffffffffffffffffffffffffffffff1681525050505080600260006101000a81548173ffffffffffffffffffffffffffffffffffffffff021916908373ffffffffffffffffffffffffffffffffffffffff16021790555050610827565b60006020835110156101b2576101ab8361023b60201b60201c565b90506101da565b826101c2836102a360201b60201c565b60000190816101d1919061058d565b5060ff60001b90505b92915050565b60007f8b73c3c69bb8fe3d512ecc4cf759cc79239f7b179b0ffacaa9a75d522b39400f60e051610100514630604051602001610220959493929190610696565b60405160208183030381529060405280519060200120905090565b600080829050601f8151111561028857826040517f305a27a900000000000000000000000000000000000000000000000000000000815260040161027f919061076e565b60405180910390fd5b805181610294906107c0565b60001c1760001b915050919050565b6000819050919050565b600080fd5b600073ffffffffffffffffffffffffffffffffffffffff82169050919050565b60006102dd826102b2565b9050919050565b6102ed816102d2565b81146102f857600080fd5b50565b60008151905061030a816102e4565b92915050565b600060208284031215610326576103256102ad565b5b6000610334848285016102fb565b91505092915050565b600081519050919050565b7f4e487b7100000000000000000000000000000000000000000000000000000000600052604160045260246000fd5b7f4e487b7100000000000000000000000000000000000000000000000000000000600052602260045260246000fd5b600060028204905060018216806103be57607f821691505b6020821081036103d1576103d0610377565b5b50919050565b60008190508160005260206000209050919050565b60006020601f8301049050919050565b600082821b905092915050565b6000600883026104397fffffffffffffffffffffffffffffffffffffffffffffffffffffffffffffffff826103fc565b61044386836103fc565b95508019841693508086168417925050509392505050565b6000819050919050565b6000819050919050565b600061048a6104856104808461045b565b610465565b61045b565b9050919050565b6000819050919050565b6104a48361046f565b6104b86104b082610491565b848454610409565b825550505050565b600090565b6104cd6104c0565b6104d881848461049b565b505050565b5b818110156104fc576104f16000826104c5565b6001810190506104de565b5050565b601f82111561054157610512816103d7565b61051b846103ec565b8101602085101561052a578190505b61053e610536856103ec565b8301826104dd565b50505b505050565b600082821c905092915050565b600061056460001984600802610546565b1980831691505092915050565b600061057d8383610553565b9150826002028217905092915050565b6105968261033d565b67ffffffffffffffff8111156105af576105ae610348565b5b6105b982546103a6565b6105c4828285610500565b600060209050601f8311600181146105f757600084156105e5578287015190505b6105ef8582610571565b865550610657565b601f198416610605866103d7565b60005b8281101561062d57848901518255600182019150602085019450602081019050610608565b8683101561064a5784890151610646601f891682610553565b8355505b6001600288020188555050505b505050505050565b6000819050919050565b6106728161065f565b82525050565b6106818161045b565b82525050565b610690816102d2565b82525050565b600060a0820190506106ab6000830188610669565b6106b86020830187610669565b6106c56040830186610669565b6106d26060830185610678565b6106df6080830184610687565b9695505050505050565b600082825260208201905092915050565b60005b838110156107185780820151818401526020810190506106fd565b60008484015250505050565b6000601f19601f8301169050919050565b60006107408261033d565b61074a81856106e9565b935061075a8185602086016106fa565b61076381610724565b840191505092915050565b600060208201905081810360008301526107888184610735565b905092915050565b600081519050919050565b6000819050602082019050919050565b60006107b7825161065f565b80915050919050565b60006107cb82610790565b826107d58461079b565b90506107e0816107ab565b925060208210156108205761081b7fffffffffffffffffffffffffffffffffffffffffffffffffffffffffffffffff836020036008026103fc565b831692505b5050919050565b60805160a05160c05160e0516101005161012051610140516130ca61088160003960006113790152600061133e01526000611ad401526000611ab301526000611513015260006115690152600061159201526130ca6000f3fe608060405234801561001057600080fd5b50600436106100b45760003560e01c806384b0196e1161007157806384b0196e1461016d578063b75d192414610191578063cb41cf64146101c1578063d420e518146101f1578063e9bb37a01461020d578063fdfd7c981461022b576100b4565b80631e76c6b4146100b95780632412d95d146100f1578063283783521461010f57806335629fb1146101195780634dae80241461013557806355874a9914610151575b600080fd5b6100d360048036038101906100ce9190611eba565b610249565b6040516100e899989796959493929190611f9a565b60405180910390f35b6100f96102de565b6040516101069190612027565b60405180910390f35b6101176102e4565b005b610133600480360381019061012e9190612066565b6104cd565b005b61014f600480360381019061014a9190612066565b61062a565b005b61016b600480360381019061016691906120e1565b610787565b005b610175610965565b60405161018897969594939291906122c6565b60405180910390f35b6101ab60048036038101906101a6919061234a565b610a0f565b6040516101b891906123e9565b60405180910390f35b6101db60048036038101906101d69190611eba565b610dc4565b6040516101e891906123e9565b60405180910390f35b61020b60048036038101906102069190612066565b610de4565b005b610215611189565b6040516102229190612027565b60405180910390f35b61023361118f565b6040516102409190612404565b60405180910390f35b60036020528060005260406000206000915090508060000154908060010160009054906101000a900473ffffffffffffffffffffffffffffffffffffffff16908060010160149054906101000a900460ff16908060020154908060030154908060040154908060050154908060060160009054906101000a900460ff16908060060160019054906101000a900460ff16905089565b61012c81565b6000600360003373ffffffffffffffffffffffffffffffffffffffff1673ffffffffffffffffffffffffffffffffffffffff1681526020019081526020016000209050600073ffffffffffffffffffffffffffffffffffffffff168160010160009054906101000a900473ffffffffffffffffffffffffffffffffffffffff1673ffffffffffffffffffffffffffffffffffffffff16036103ba576040517f08c379a00000000000000000000000000000000000000000000000000000000081526004016103b190612472565b60405180910390fd5b61012c81600001546103cc91906124c1565b4211806103e757508060010160149054906101000a900460ff165b610426576040517f08c379a000000000000000000000000000000000000000000000000000000000815260040161041d90612567565b60405180910390fd5b42816000018190555060008160010160146101000a81548160ff02191690831515021790555060008160060160006101000a81548160ff021916908360ff16021790555060008160060160016101000a81548160ff0219169083151502179055503373ffffffffffffffffffffffffffffffffffffffff167f5551f52823ba301440592c9fc2e93c6a6fb8d0cd41bd1cfa6f020b59400695fa60405160405180910390a250565b816104d79061275e565b600260009054906101000a900473ffffffffffffffffffffffffffffffffffffffff1660006105517f6bdaeb2d29561f159c7ef98b16b27015fb2aeb87209c7ee656226d912f59927d8460000151604051602001610536929190612771565b604051602081830303815290604052805190602001206112d9565b905060006105638285602001516112f3565b90508273ffffffffffffffffffffffffffffffffffffffff168173ffffffffffffffffffffffffffffffffffffffff16146105ca576040517f51c65eae00000000000000000000000000000000000000000000000000000000815260040160405180910390fd5b6001600460008773ffffffffffffffffffffffffffffffffffffffff1673ffffffffffffffffffffffffffffffffffffffff16815260200190815260200160002060006101000a81548160ff021916908315150217905550505050505050565b816106349061275e565b600260009054906101000a900473ffffffffffffffffffffffffffffffffffffffff1660006106ae7f6bdaeb2d29561f159c7ef98b16b27015fb2aeb87209c7ee656226d912f59927d8460000151604051602001610693929190612771565b604051602081830303815290604052805190602001206112d9565b905060006106c08285602001516112f3565b90508273ffffffffffffffffffffffffffffffffffffffff168173ffffffffffffffffffffffffffffffffffffffff1614610727576040517f51c65eae00000000000000000000000000000000000000000000000000000000815260040160405180910390fd5b6000600460008773ffffffffffffffffffffffffffffffffffffffff1673ffffffffffffffffffffffffffffffffffffffff16815260200190815260200160002060006101000a81548160ff021916908315150217905550505050505050565b6000600360008473ffffffffffffffffffffffffffffffffffffffff1673ffffffffffffffffffffffffffffffffffffffff16815260200190815260200160002090508060010160009054906101000a900473ffffffffffffffffffffffffffffffffffffffff1673ffffffffffffffffffffffffffffffffffffffff163373ffffffffffffffffffffffffffffffffffffffff161461085c576040517f08c379a0000000000000000000000000000000000000000000000000000000008152600401610853906127e6565b60405180910390fd5b61012c816000015461086e91906124c1565b4211156108b0576040517f08c379a00000000000000000000000000000000000000000000000000000000081526004016108a790612852565b60405180910390fd5b60018160010160146101000a81548160ff0219169083151502179055504281600201819055506108e8826108e3906128ca565b61131f565b816003018190555061012c426108fe91906124c1565b81600501819055503373ffffffffffffffffffffffffffffffffffffffff168373ffffffffffffffffffffffffffffffffffffffff167f9331a3c7a93bcdc2ae741e8ba8b724b1952cc8d3590b749a60490cfb10f2822260405160405180910390a3505050565b600060608060008060006060610979611335565b610981611370565b46306000801b600067ffffffffffffffff8111156109a2576109a161258c565b5b6040519080825280602002602001820160405280156109d05781602001602082028036833780820191505090505b507f0f00000000000000000000000000000000000000000000000000000000000000959493929190965096509650965096509650965090919293949596565b600084610a1b9061275e565b846000610a737f6bdaeb2d29561f159c7ef98b16b27015fb2aeb87209c7ee656226d912f59927d8460000151604051602001610a58929190612771565b604051602081830303815290604052805190602001206112d9565b90506000610a858285602001516112f3565b90508273ffffffffffffffffffffffffffffffffffffffff168173ffffffffffffffffffffffffffffffffffffffff1614610aec576040517f51c65eae00000000000000000000000000000000000000000000000000000000815260040160405180910390fd5b600460008973ffffffffffffffffffffffffffffffffffffffff1673ffffffffffffffffffffffffffffffffffffffff16815260200190815260200160002060009054906101000a900460ff16610b78576040517f08c379a0000000000000000000000000000000000000000000000000000000008152600401610b6f90612929565b60405180910390fd5b6000600360008973ffffffffffffffffffffffffffffffffffffffff1673ffffffffffffffffffffffffffffffffffffffff16815260200190815260200160002090508060010160149054906101000a900460ff16610c0c576040517f08c379a0000000000000000000000000000000000000000000000000000000008152600401610c0390612995565b60405180910390fd5b8060050154421115610c53576040517f08c379a0000000000000000000000000000000000000000000000000000000008152600401610c4a90612a01565b60405180910390fd5b8060060160019054906101000a900460ff1615610ca5576040517f08c379a0000000000000000000000000000000000000000000000000000000008152600401610c9c90612a6d565b60405180910390fd5b60038160060160009054906101000a900460ff1660ff1610610cfc576040517f08c379a0000000000000000000000000000000000000000000000000000000008152600401610cf390612ad9565b60405180910390fd5b6000610d1088610d0b906128ca565b61131f565b90506000610d228284600301546113ab565b90506000610d2f82611424565b905080610d765760018460060160016101000a81548160ff02191690831515021790555060008460060160006101000a81548160ff021916908360ff160217905550610db1565b83600601600081819054906101000a900460ff1680929190610d9790612af9565b91906101000a81548160ff021916908360ff160217905550505b8098505050505050505050949350505050565b60046020528060005260406000206000915054906101000a900460ff1681565b81610dee9061275e565b6000610e457f6bdaeb2d29561f159c7ef98b16b27015fb2aeb87209c7ee656226d912f59927d8360000151604051602001610e2a929190612771565b604051602081830303815290604052805190602001206112d9565b90506000610e578284602001516112f3565b90503373ffffffffffffffffffffffffffffffffffffffff168173ffffffffffffffffffffffffffffffffffffffff1614610ebe576040517f3093a27700000000000000000000000000000000000000000000000000000000815260040160405180910390fd5b600073ffffffffffffffffffffffffffffffffffffffff168473ffffffffffffffffffffffffffffffffffffffff1603610f2d576040517f08c379a0000000000000000000000000000000000000000000000000000000008152600401610f2490612b6e565b60405180910390fd5b3373ffffffffffffffffffffffffffffffffffffffff168473ffffffffffffffffffffffffffffffffffffffff1603610f9b576040517f08c379a0000000000000000000000000000000000000000000000000000000008152600401610f9290612c00565b60405180910390fd5b604051806101200160405280600081526020018573ffffffffffffffffffffffffffffffffffffffff16815260200160001515815260200160008152602001610fe460006114e7565b81526020018660000135815260200160008152602001600060ff16815260200160001515815250600360003373ffffffffffffffffffffffffffffffffffffffff1673ffffffffffffffffffffffffffffffffffffffff1681526020019081526020016000206000820151816000015560208201518160010160006101000a81548173ffffffffffffffffffffffffffffffffffffffff021916908373ffffffffffffffffffffffffffffffffffffffff16021790555060408201518160010160146101000a81548160ff021916908315150217905550606082015181600201556080820151816003015560a0820151816004015560c0820151816005015560e08201518160060160006101000a81548160ff021916908360ff1602179055506101008201518160060160016101000a81548160ff0219169083151502179055509050508373ffffffffffffffffffffffffffffffffffffffff163373ffffffffffffffffffffffffffffffffffffffff167f0a31ee9d46a828884b81003c8498156ea6aa15b9b54bdd0ef0b533d9eba57e5560405160405180910390a35050505050565b61012c81565b60606000600360003373ffffffffffffffffffffffffffffffffffffffff1673ffffffffffffffffffffffffffffffffffffffff1681526020019081526020016000209050600073ffffffffffffffffffffffffffffffffffffffff168160010160009054906101000a900473ffffffffffffffffffffffffffffffffffffffff1673ffffffffffffffffffffffffffffffffffffffff1603611267576040517f08c379a000000000000000000000000000000000000000000000000000000000815260040161125e90612472565b60405180910390fd5b8060010160149054906101000a900460ff166112b8576040517f08c379a00000000000000000000000000000000000000000000000000000000081526004016112af90612995565b60405180910390fd5b6112d3816004015482600301546114fb90919063ffffffff16565b91505090565b60006112ec6112e661150f565b836115c6565b9050919050565b6000806000806113038686611607565b9250925092506113138282611663565b82935050505092915050565b600061132e82600001516117c7565b9050919050565b606061136b60007f00000000000000000000000000000000000000000000000000000000000000006117db90919063ffffffff16565b905090565b60606113a660017f00000000000000000000000000000000000000000000000000000000000000006117db90919063ffffffff16565b905090565b60006113b68361188b565b6113c7576113c460006114e7565b92505b6113d08261188b565b6113e1576113de60006114e7565b91505b60008390506000839050600061141660058484608073ffffffffffffffffffffffffffffffffffffffff166392348b34611898565b905080935050505092915050565b600061142f8261192c565b6114405761143d6000611939565b91505b600082905060006114508261194d565b90506000608073ffffffffffffffffffffffffffffffffffffffff166373cc0154600d846040518363ffffffff1660e01b8152600401611491929190612c75565b602060405180830381865afa1580156114ae573d6000803e3d6000fd5b505050506040513d601f19601f820116820180604052508101906114d29190612cd1565b90506114dd816119aa565b9350505050919050565b60006114f48260056119b6565b9050919050565b60606115078383611a58565b905092915050565b60007f000000000000000000000000000000000000000000000000000000000000000073ffffffffffffffffffffffffffffffffffffffff163073ffffffffffffffffffffffffffffffffffffffff1614801561158b57507f000000000000000000000000000000000000000000000000000000000000000046145b156115b8577f000000000000000000000000000000000000000000000000000000000000000090506115c3565b6115c0611a8e565b90505b90565b60006040517f190100000000000000000000000000000000000000000000000000000000000081528360028201528260228201526042812091505092915050565b6000806000604184510361164c5760008060006020870151925060408701519150606087015160001a905061163e88828585611b24565b95509550955050505061165c565b60006002855160001b9250925092505b9250925092565b6000600381111561167757611676612cfe565b5b82600381111561168a57611689612cfe565b5b03156117c357600160038111156116a4576116a3612cfe565b5b8260038111156116b7576116b6612cfe565b5b036116ee576040517ff645eedf00000000000000000000000000000000000000000000000000000000815260040160405180910390fd5b6002600381111561170257611701612cfe565b5b82600381111561171557611714612cfe565b5b0361175a578060001c6040517ffce698f70000000000000000000000000000000000000000000000000000000081526004016117519190612027565b60405180910390fd5b60038081111561176d5761176c612cfe565b5b8260038111156117805761177f612cfe565b5b036117c257806040517fd78bce0c0000000000000000000000000000000000000000000000000000000081526004016117b99190612d2d565b60405180910390fd5b5b5050565b60006117d4826005611c18565b9050919050565b606060ff60001b83146117f8576117f183611cb2565b9050611885565b81805461180490612d77565b80601f016020809104026020016040519081016040528092919081815260200182805461183090612d77565b801561187d5780601f106118525761010080835404028352916020019161187d565b820191906000526020600020905b81548152906001019060200180831161186057829003601f168201915b505050505090505b92915050565b6000808214159050919050565b600060608383886118a88961194d565b6118b18961194d565b6040518463ffffffff1660e01b81526004016118cf93929190612da8565b600060405180830381865afa1580156118ec573d6000803e3d6000fd5b505050506040513d6000823e3d601f19601f820116820180604052508101906119159190612e5d565b905061192081611d26565b91505095945050505050565b6000808214159050919050565b600061194682600d6119b6565b9050919050565b6060602067ffffffffffffffff81111561196a5761196961258c565b5b6040519080825280601f01601f19166020018201604052801561199c5781602001600182028036833780820191505090505b509050816020820152919050565b60008082119050919050565b60006060608073ffffffffffffffffffffffffffffffffffffffff166319e1c5c46119e08661194d565b856040518363ffffffff1660e01b81526004016119fe929190612ea6565b600060405180830381865afa158015611a1b573d6000803e3d6000fd5b505050506040513d6000823e3d601f19601f82011682018060405250810190611a449190612e5d565b9050611a4f81611d34565b91505092915050565b6060611a638361188b565b611a7457611a7160006114e7565b92505b6000839050611a8560058285611d42565b91505092915050565b60007f8b73c3c69bb8fe3d512ecc4cf759cc79239f7b179b0ffacaa9a75d522b39400f7f00000000000000000000000000000000000000000000000000000000000000007f00000000000000000000000000000000000000000000000000000000000000004630604051602001611b09959493929190612ed6565b60405160208183030381529060405280519060200120905090565b60008060007f7fffffffffffffffffffffffffffffff5d576e7357a4501ddfe92f46681b20a08460001c1115611b64576000600385925092509250611c0e565b600060018888888860405160008152602001604052604051611b899493929190612f29565b6020604051602081039080840390855afa158015611bab573d6000803e3d6000fd5b505050602060405103519050600073ffffffffffffffffffffffffffffffffffffffff168173ffffffffffffffffffffffffffffffffffffffff1603611bff57600060016000801b93509350935050611c0e565b8060008060001b935093509350505b9450945094915050565b60006060608073ffffffffffffffffffffffffffffffffffffffff16635fa55ca784866040518363ffffffff1660e01b8152600401611c58929190612c75565b600060405180830381865afa158015611c75573d6000803e3d6000fd5b505050506040513d6000823e3d601f19601f82011682018060405250810190611c9e9190612e5d565b9050611ca981611d34565b91505092915050565b60606000611cbf83611df8565b90506000602067ffffffffffffffff811115611cde57611cdd61258c565b5b6040519080825280601f01601f191660200182016040528015611d105781602001600182028036833780820191505090505b5090508181528360208201528092505050919050565b600060208201519050919050565b600060208201519050919050565b6060608073ffffffffffffffffffffffffffffffffffffffff1663a1848ff385611d6b8661194d565b85604051602001611d7c9190612f8f565b6040516020818303038152906040526040518463ffffffff1660e01b8152600401611da993929190612da8565b600060405180830381865afa158015611dc6573d6000803e3d6000fd5b505050506040513d6000823e3d601f19601f82011682018060405250810190611def919061304b565b90509392505050565b60008060ff8360001c169050601f811115611e3f576040517fb3512b0c00000000000000000000000000000000000000000000000000000000815260040160405180910390fd5b80915050919050565b6000604051905090565b600080fd5b600080fd5b600073ffffffffffffffffffffffffffffffffffffffff82169050919050565b6000611e8782611e5c565b9050919050565b611e9781611e7c565b8114611ea257600080fd5b50565b600081359050611eb481611e8e565b92915050565b600060208284031215611ed057611ecf611e52565b5b6000611ede84828501611ea5565b91505092915050565b6000819050919050565b611efa81611ee7565b82525050565b611f0981611e7c565b82525050565b60008115159050919050565b611f2481611f0f565b82525050565b6000819050919050565b6000611f4f611f4a611f4584611ee7565b611f2a565b611ee7565b9050919050565b611f5f81611f34565b82525050565b6000819050919050565b611f7881611f65565b82525050565b600060ff82169050919050565b611f9481611f7e565b82525050565b600061012082019050611fb0600083018c611ef1565b611fbd602083018b611f00565b611fca604083018a611f1b565b611fd76060830189611ef1565b611fe46080830188611f56565b611ff160a0830187611f6f565b611ffe60c0830186611ef1565b61200b60e0830185611f8b565b612019610100830184611f1b565b9a9950505050505050505050565b600060208201905061203c6000830184611ef1565b92915050565b600080fd5b60006040828403121561205d5761205c612042565b5b81905092915050565b6000806040838503121561207d5761207c611e52565b5b600083013567ffffffffffffffff81111561209b5761209a611e57565b5b6120a785828601612047565b92505060206120b885828601611ea5565b9150509250929050565b6000602082840312156120d8576120d7612042565b5b81905092915050565b600080604083850312156120f8576120f7611e52565b5b600061210685828601611ea5565b925050602083013567ffffffffffffffff81111561212757612126611e57565b5b612133858286016120c2565b9150509250929050565b60007fff0000000000000000000000000000000000000000000000000000000000000082169050919050565b6121728161213d565b82525050565b600081519050919050565b600082825260208201905092915050565b60005b838110156121b2578082015181840152602081019050612197565b60008484015250505050565b6000601f19601f8301169050919050565b60006121da82612178565b6121e48185612183565b93506121f4818560208601612194565b6121fd816121be565b840191505092915050565b600081519050919050565b600082825260208201905092915050565b6000819050602082019050919050565b61223d81611ee7565b82525050565b600061224f8383612234565b60208301905092915050565b6000602082019050919050565b600061227382612208565b61227d8185612213565b935061228883612224565b8060005b838110156122b95781516122a08882612243565b97506122ab8361225b565b92505060018101905061228c565b5085935050505092915050565b600060e0820190506122db600083018a612169565b81810360208301526122ed81896121cf565b9050818103604083015261230181886121cf565b90506123106060830187611ef1565b61231d6080830186611f00565b61232a60a0830185611f6f565b81810360c083015261233c8184612268565b905098975050505050505050565b6000806000806080858703121561236457612363611e52565b5b600085013567ffffffffffffffff81111561238257612381611e57565b5b61238e87828801612047565b945050602061239f87828801611ea5565b93505060406123b087828801611ea5565b925050606085013567ffffffffffffffff8111156123d1576123d0611e57565b5b6123dd878288016120c2565b91505092959194509250565b60006020820190506123fe6000830184611f1b565b92915050565b6000602082019050818103600083015261241e81846121cf565b905092915050565b7f55736572206e6f74207265676973746572656400000000000000000000000000600082015250565b600061245c601383612183565b915061246782612426565b602082019050919050565b6000602082019050818103600083015261248b8161244f565b9050919050565b7f4e487b7100000000000000000000000000000000000000000000000000000000600052601160045260246000fd5b60006124cc82611ee7565b91506124d783611ee7565b92508282019050808211156124ef576124ee612492565b5b92915050565b7f50726576696f7573206c6f67696e2072657175657374207374696c6c2070656e60008201527f64696e6700000000000000000000000000000000000000000000000000000000602082015250565b6000612551602483612183565b915061255c826124f5565b604082019050919050565b6000602082019050818103600083015261258081612544565b9050919050565b600080fd5b7f4e487b7100000000000000000000000000000000000000000000000000000000600052604160045260246000fd5b6125c4826121be565b810181811067ffffffffffffffff821117156125e3576125e261258c565b5b80604052505050565b60006125f6611e48565b905061260282826125bb565b919050565b600080fd5b61261581611f65565b811461262057600080fd5b50565b6000813590506126328161260c565b92915050565b600080fd5b600080fd5b600067ffffffffffffffff82111561265d5761265c61258c565b5b612666826121be565b9050602081019050919050565b82818337600083830152505050565b600061269561269084612642565b6125ec565b9050828152602081018484840111156126b1576126b061263d565b5b6126bc848285612673565b509392505050565b600082601f8301126126d9576126d8612638565b5b81356126e9848260208601612682565b91505092915050565b60006040828403121561270857612707612587565b5b61271260406125ec565b9050600061272284828501612623565b600083015250602082013567ffffffffffffffff81111561274657612745612607565b5b612752848285016126c4565b60208301525092915050565b600061276a36836126f2565b9050919050565b60006040820190506127866000830185611f6f565b6127936020830184611f6f565b9392505050565b7f4e6f7420617574686f72697a6564000000000000000000000000000000000000600082015250565b60006127d0600e83612183565b91506127db8261279a565b602082019050919050565b600060208201905081810360008301526127ff816127c3565b9050919050565b7f54696d6520696e74657276616c20657870697265640000000000000000000000600082015250565b600061283c601583612183565b915061284782612806565b602082019050919050565b6000602082019050818103600083015261286b8161282f565b9050919050565b60006020828403121561288857612887612587565b5b61289260206125ec565b9050600082013567ffffffffffffffff8111156128b2576128b1612607565b5b6128be848285016126c4565b60008301525092915050565b60006128d63683612872565b9050919050565b7f53657276696365206e6f742077686974656c6973746564000000000000000000600082015250565b6000612913601783612183565b915061291e826128dd565b602082019050919050565b6000602082019050818103600083015261294281612906565b9050919050565b7f4c6f67696e206e6f7420617070726f7665640000000000000000000000000000600082015250565b600061297f601283612183565b915061298a82612949565b602082019050919050565b600060208201905081810360008301526129ae81612972565b9050919050565b7f50617373776f7264206861732065787069726564000000000000000000000000600082015250565b60006129eb601483612183565b91506129f6826129b5565b602082019050919050565b60006020820190508181036000830152612a1a816129de565b9050919050565b7f50617373776f726420686173206265656e207573656400000000000000000000600082015250565b6000612a57601683612183565b9150612a6282612a21565b602082019050919050565b60006020820190508181036000830152612a8681612a4a565b9050919050565b7f546f6f206d616e7920617474656d707473000000000000000000000000000000600082015250565b6000612ac3601183612183565b9150612ace82612a8d565b602082019050919050565b60006020820190508181036000830152612af281612ab6565b9050919050565b6000612b0482611f7e565b915060ff8203612b1757612b16612492565b5b600182019050919050565b7f496e76616c6964207365636f6e64617279207369676e65722061646472657373600082015250565b6000612b58602083612183565b9150612b6382612b22565b602082019050919050565b60006020820190508181036000830152612b8781612b4b565b9050919050565b7f5365636f6e64617279207369676e65722063616e6e6f7420626520746865207360008201527f616d6520617320746865207072696d6172792075736572000000000000000000602082015250565b6000612bea603783612183565b9150612bf582612b8e565b604082019050919050565b60006020820190508181036000830152612c1981612bdd565b9050919050565b600081519050919050565b600082825260208201905092915050565b6000612c4782612c20565b612c518185612c2b565b9350612c61818560208601612194565b612c6a816121be565b840191505092915050565b6000604082019050612c8a6000830185611f8b565b8181036020830152612c9c8184612c3c565b90509392505050565b612cae81611ee7565b8114612cb957600080fd5b50565b600081519050612ccb81612ca5565b92915050565b600060208284031215612ce757612ce6611e52565b5b6000612cf584828501612cbc565b91505092915050565b7f4e487b7100000000000000000000000000000000000000000000000000000000600052602160045260246000fd5b6000602082019050612d426000830184611f6f565b92915050565b7f4e487b7100000000000000000000000000000000000000000000000000000000600052602260045260246000fd5b60006002820490506001821680612d8f57607f821691505b602082108103612da257612da1612d48565b5b50919050565b6000606082019050612dbd6000830186611f8b565b8181036020830152612dcf8185612c3c565b90508181036040830152612de38184612c3c565b9050949350505050565b6000612e00612dfb84612642565b6125ec565b905082815260208101848484011115612e1c57612e1b61263d565b5b612e27848285612194565b509392505050565b600082601f830112612e4457612e43612638565b5b8151612e54848260208601612ded565b91505092915050565b600060208284031215612e7357612e72611e52565b5b600082015167ffffffffffffffff811115612e9157612e90611e57565b5b612e9d84828501612e2f565b91505092915050565b60006040820190508181036000830152612ec08185612c3c565b9050612ecf6020830184611f8b565b9392505050565b600060a082019050612eeb6000830188611f6f565b612ef86020830187611f6f565b612f056040830186611f6f565b612f126060830185611ef1565b612f1f6080830184611f00565b9695505050505050565b6000608082019050612f3e6000830187611f6f565b612f4b6020830186611f8b565b612f586040830185611f6f565b612f656060830184611f6f565b95945050505050565b6000819050919050565b612f89612f8482611f65565b612f6e565b82525050565b6000612f9b8284612f78565b60208201915081905092915050565b600067ffffffffffffffff821115612fc557612fc461258c565b5b612fce826121be565b9050602081019050919050565b6000612fee612fe984612faa565b6125ec565b90508281526020810184848401111561300a5761300961263d565b5b613015848285612194565b509392505050565b600082601f83011261303257613031612638565b5b8151613042848260208601612fdb565b91505092915050565b60006020828403121561306157613060611e52565b5b600082015167ffffffffffffffff81111561307f5761307e611e57565b5b61308b8482850161301d565b9150509291505056fea2646970667358221220fe5434d99175ec7d43e58f4e0c6986f33fcbdc2810cecd874ac910df87b8253964736f6c63430008190033",
  "devdoc": {
    "details": "A smart contract for implementing a two-factor authentication (2FA) system. This contract allows users to register, request login, approve login, and verify temporary passwords.",
    "errors": {
      "ECDSAInvalidSignature()": [
        {
          "details": "The signature derives the `address(0)`."
        }
      ],
      "ECDSAInvalidSignatureLength(uint256)": [
        {
          "details": "The signature has an invalid length."
        }
      ],
      "ECDSAInvalidSignatureS(bytes32)": [
        {
          "details": "The signature has an S value that is in the upper half order."
        }
      ]
    },
    "events": {
      "EIP712DomainChanged()": {
        "details": "MAY be emitted to signal that the domain could have changed."
      }
    },
    "kind": "dev",
    "methods": {
      "addServiceToWhitelist((bytes32,bytes),address)": {
        "details": "Adds a service to the whitelist.",
        "params": {
          "perm": "The permission object for access control.",
          "service": "The address of the service to be added."
        }
      },
      "approveLogin(address,(bytes))": {
        "details": "Approves a login request from the secondary signer.",
        "params": {
          "_user": "The address of the user requesting login."
        }
      },
      "eip712Domain()": {
        "details": "See {IERC-5267}."
      },
      "getEncryptedPassword()": {
        "details": "Retrieves the encrypted password for a user.",
        "returns": {
          "encryptedPassword": "The sealed encrypted password."
        }
      },
      "register((bytes32,bytes),address)": {
        "details": "Registers a user with a secondary signer and user public key.",
        "params": {
          "_secondarySigner": "The address of the secondary signer.",
          "perm": "The permission object for access control."
        }
      },
      "removeServiceFromWhitelist((bytes32,bytes),address)": {
        "details": "Removes a service from the whitelist.",
        "params": {
          "perm": "The permission object for access control.",
          "service": "The address of the service to be removed."
        }
      },
      "requestLogin()": {
        "details": "Requests a login, resetting the approval status."
      },
      "verifyTempPassword((bytes32,bytes),address,address,(bytes))": {
        "details": "Verifies the temporary password for a user by a whitelisted service.",
        "params": {
          "_encryptedTempPassword": "The encrypted temporary password provided by the service.",
          "_service": "The address of the service verifying the password.",
          "_user": "The address of the user.",
          "perm": "The permission object for access control."
        },
        "returns": {
          "_0": "True if the password is valid, false otherwise."
        }
      }
    },
    "title": "TwoFactorAuth",
    "version": 1
  },
  "userdoc": {
    "errors": {
      "SignerNotMessageSender()": [
        {
          "notice": "Emitted when the signer is not the message sender"
        }
      ],
      "SignerNotOwner()": [
        {
          "notice": "Emitted when the signer is not the specified owner"
        }
      ]
    },
    "kind": "user",
    "methods": {},
    "version": 1
  },
  "storageLayout": {
    "storage": [
      {
        "astId": 19906,
        "contract": "contracts/TwoFactorAuth.sol:TwoFactorAuth",
        "label": "_nameFallback",
        "offset": 0,
        "slot": "0",
        "type": "t_string_storage"
      },
      {
        "astId": 19908,
        "contract": "contracts/TwoFactorAuth.sol:TwoFactorAuth",
        "label": "_versionFallback",
        "offset": 0,
        "slot": "1",
        "type": "t_string_storage"
      },
      {
        "astId": 21368,
        "contract": "contracts/TwoFactorAuth.sol:TwoFactorAuth",
        "label": "owner",
        "offset": 0,
        "slot": "2",
        "type": "t_address"
      },
      {
        "astId": 21373,
        "contract": "contracts/TwoFactorAuth.sol:TwoFactorAuth",
        "label": "authData",
        "offset": 0,
        "slot": "3",
        "type": "t_mapping(t_address,t_struct(AuthData)21366_storage)"
      },
      {
        "astId": 21377,
        "contract": "contracts/TwoFactorAuth.sol:TwoFactorAuth",
        "label": "whitelistedServices",
        "offset": 0,
        "slot": "4",
        "type": "t_mapping(t_address,t_bool)"
      }
    ],
    "types": {
      "t_address": {
        "encoding": "inplace",
        "label": "address",
        "numberOfBytes": "20"
      },
      "t_bool": {
        "encoding": "inplace",
        "label": "bool",
        "numberOfBytes": "1"
      },
      "t_bytes32": {
        "encoding": "inplace",
        "label": "bytes32",
        "numberOfBytes": "32"
      },
      "t_mapping(t_address,t_bool)": {
        "encoding": "mapping",
        "key": "t_address",
        "label": "mapping(address => bool)",
        "numberOfBytes": "32",
        "value": "t_bool"
      },
      "t_mapping(t_address,t_struct(AuthData)21366_storage)": {
        "encoding": "mapping",
        "key": "t_address",
        "label": "mapping(address => struct TwoFactorAuth.AuthData)",
        "numberOfBytes": "32",
        "value": "t_struct(AuthData)21366_storage"
      },
      "t_string_storage": {
        "encoding": "bytes",
        "label": "string",
        "numberOfBytes": "32"
      },
      "t_struct(AuthData)21366_storage": {
        "encoding": "inplace",
        "label": "struct TwoFactorAuth.AuthData",
        "members": [
          {
            "astId": 21348,
            "contract": "contracts/TwoFactorAuth.sol:TwoFactorAuth",
            "label": "lastRequestTime",
            "offset": 0,
            "slot": "0",
            "type": "t_uint256"
          },
          {
            "astId": 21350,
            "contract": "contracts/TwoFactorAuth.sol:TwoFactorAuth",
            "label": "secondarySigner",
            "offset": 0,
            "slot": "1",
            "type": "t_address"
          },
          {
            "astId": 21352,
            "contract": "contracts/TwoFactorAuth.sol:TwoFactorAuth",
            "label": "isApproved",
            "offset": 20,
            "slot": "1",
            "type": "t_bool"
          },
          {
            "astId": 21354,
            "contract": "contracts/TwoFactorAuth.sol:TwoFactorAuth",
            "label": "lastApprovalTime",
            "offset": 0,
            "slot": "2",
            "type": "t_uint256"
          },
          {
            "astId": 21357,
            "contract": "contracts/TwoFactorAuth.sol:TwoFactorAuth",
            "label": "encryptedPassword",
            "offset": 0,
            "slot": "3",
            "type": "t_userDefinedValueType(euint256)18"
          },
          {
            "astId": 21359,
            "contract": "contracts/TwoFactorAuth.sol:TwoFactorAuth",
            "label": "userPublicKey",
            "offset": 0,
            "slot": "4",
            "type": "t_bytes32"
          },
          {
            "astId": 21361,
            "contract": "contracts/TwoFactorAuth.sol:TwoFactorAuth",
            "label": "validUntil",
            "offset": 0,
            "slot": "5",
            "type": "t_uint256"
          },
          {
            "astId": 21363,
            "contract": "contracts/TwoFactorAuth.sol:TwoFactorAuth",
            "label": "passwordAttempts",
            "offset": 0,
            "slot": "6",
            "type": "t_uint8"
          },
          {
            "astId": 21365,
            "contract": "contracts/TwoFactorAuth.sol:TwoFactorAuth",
            "label": "passwordUsed",
            "offset": 1,
            "slot": "6",
            "type": "t_bool"
          }
        ],
        "numberOfBytes": "224"
      },
      "t_uint256": {
        "encoding": "inplace",
        "label": "uint256",
        "numberOfBytes": "32"
      },
      "t_uint8": {
        "encoding": "inplace",
        "label": "uint8",
        "numberOfBytes": "1"
      },
      "t_userDefinedValueType(euint256)18": {
        "encoding": "inplace",
        "label": "euint256",
        "numberOfBytes": "32"
      }
    }
  }
}